{
  "contractName": "PermaVault",
  "abi": [
    {
      "inputs": [
        {
          "internalType": "contract ERC20",
          "name": "_token",
          "type": "address"
        }
      ],
      "stateMutability": "nonpayable",
      "type": "constructor"
    },
    {
      "anonymous": false,
      "inputs": [
        {
          "indexed": true,
          "internalType": "address",
          "name": "recipient",
          "type": "address"
        }
      ],
      "name": "Deposit",
      "type": "event"
    },
    {
      "anonymous": false,
      "inputs": [
        {
          "indexed": true,
          "internalType": "address",
          "name": "previousOwner",
          "type": "address"
        },
        {
          "indexed": true,
          "internalType": "address",
          "name": "newOwner",
          "type": "address"
        }
      ],
      "name": "OwnershipTransferred",
      "type": "event"
    },
    {
      "anonymous": false,
      "inputs": [
        {
          "indexed": true,
          "internalType": "address",
          "name": "recipient",
          "type": "address"
        },
        {
          "indexed": false,
          "internalType": "uint256",
          "name": "amountClaimed",
          "type": "uint256"
        }
      ],
      "name": "tokenReleased",
      "type": "event"
    },
    {
      "inputs": [],
      "name": "owner",
      "outputs": [
        {
          "internalType": "address",
          "name": "",
          "type": "address"
        }
      ],
      "stateMutability": "view",
      "type": "function"
    },
    {
      "inputs": [],
      "name": "renounceOwnership",
      "outputs": [],
      "stateMutability": "nonpayable",
      "type": "function"
    },
    {
      "inputs": [],
      "name": "token",
      "outputs": [
        {
          "internalType": "contract ERC20",
          "name": "",
          "type": "address"
        }
      ],
      "stateMutability": "view",
      "type": "function"
    },
    {
      "inputs": [
        {
          "internalType": "address",
          "name": "newOwner",
          "type": "address"
        }
      ],
      "name": "transferOwnership",
      "outputs": [],
      "stateMutability": "nonpayable",
      "type": "function"
    },
    {
      "inputs": [
        {
          "internalType": "address",
          "name": "_recipient",
          "type": "address"
        },
        {
          "internalType": "uint256",
          "name": "_amount",
          "type": "uint256"
        },
        {
          "internalType": "uint16",
          "name": "_vestingDurationInDays",
          "type": "uint16"
        },
        {
          "internalType": "uint16",
          "name": "_vestingCliffInDays",
          "type": "uint16"
        }
      ],
      "name": "addTokentoVault",
      "outputs": [],
      "stateMutability": "nonpayable",
      "type": "function"
    },
    {
      "inputs": [],
      "name": "releaseUnlockedTokens",
      "outputs": [],
      "stateMutability": "nonpayable",
      "type": "function"
    },
    {
      "inputs": [
        {
          "internalType": "address",
          "name": "_recipient",
          "type": "address"
        }
      ],
      "name": "getReleaseAmount",
      "outputs": [
        {
          "internalType": "uint256",
          "name": "",
          "type": "uint256"
        }
      ],
      "stateMutability": "view",
      "type": "function"
    },
    {
      "inputs": [
        {
          "internalType": "address",
          "name": "_recipient",
          "type": "address"
        }
      ],
      "name": "calculateRelease",
      "outputs": [
        {
          "internalType": "uint16",
          "name": "",
          "type": "uint16"
        },
        {
          "internalType": "uint256",
          "name": "",
          "type": "uint256"
        }
      ],
      "stateMutability": "view",
      "type": "function"
    }
  ],
  "bytecode": "0x608060405234801561001057600080fd5b506040516116ff3803806116ff8339818101604052602081101561003357600080fd5b8101908080519060200190929190505050600061005461017360201b60201c565b9050806000806101000a81548173ffffffffffffffffffffffffffffffffffffffff021916908373ffffffffffffffffffffffffffffffffffffffff1602179055508073ffffffffffffffffffffffffffffffffffffffff16600073ffffffffffffffffffffffffffffffffffffffff167f8be0079c531659141344cd1fd0a4f28419497f9722a3daafe3b4186f6b6457e060405160405180910390a350600073ffffffffffffffffffffffffffffffffffffffff168173ffffffffffffffffffffffffffffffffffffffff16141561012c57600080fd5b80600160006101000a81548173ffffffffffffffffffffffffffffffffffffffff021916908373ffffffffffffffffffffffffffffffffffffffff1602179055505061017b565b600033905090565b6115758061018a6000396000f3fe608060405234801561001057600080fd5b50600436106100885760003560e01c80637bac38411161005b5780637bac3841146101635780638da5cb5b146101c6578063f2fde38b146101fa578063fc0c546a1461023e57610088565b806332ad29821461008d5780634329a310146100e557806363b041ec146100ef578063715018a614610159575b600080fd5b6100cf600480360360208110156100a357600080fd5b81019080803573ffffffffffffffffffffffffffffffffffffffff169060200190929190505050610272565b6040518082815260200191505060405180910390f35b6100ed6102c3565b005b6101576004803603608081101561010557600080fd5b81019080803573ffffffffffffffffffffffffffffffffffffffff16906020019092919080359060200190929190803561ffff169060200190929190803561ffff1690602001909291905050506105d5565b005b610161610b64565b005b6101a56004803603602081101561017957600080fd5b81019080803573ffffffffffffffffffffffffffffffffffffffff169060200190929190505050610cea565b604051808361ffff1681526020018281526020019250505060405180910390f35b6101ce610eef565b604051808273ffffffffffffffffffffffffffffffffffffffff16815260200191505060405180910390f35b61023c6004803603602081101561021057600080fd5b81019080803573ffffffffffffffffffffffffffffffffffffffff169060200190929190505050610f18565b005b610246611123565b604051808273ffffffffffffffffffffffffffffffffffffffff16815260200191505060405180910390f35b600080600260008473ffffffffffffffffffffffffffffffffffffffff1673ffffffffffffffffffffffffffffffffffffffff16815260200190815260200160002090508060010154915050919050565b6000806102cf33610cea565b80925081935050506000811161034d576040517f08c379a00000000000000000000000000000000000000000000000000000000081526004018080602001828103825260138152602001807f3020546f6b656e7320746f2072656c656173650000000000000000000000000081525060200191505060405180910390fd5b6000600260003373ffffffffffffffffffffffffffffffffffffffff1673ffffffffffffffffffffffffffffffffffffffff16815260200190815260200160002090506103bd8361ffff168260020160029054906101000a900461ffff1661ffff1661114990919063ffffffff16565b8160020160026101000a81548161ffff021916908361ffff1602179055506103f282826003015461114990919063ffffffff16565b8160030181905550600160009054906101000a900473ffffffffffffffffffffffffffffffffffffffff1673ffffffffffffffffffffffffffffffffffffffff1663a9059cbb8260040160009054906101000a900473ffffffffffffffffffffffffffffffffffffffff16846040518363ffffffff1660e01b8152600401808373ffffffffffffffffffffffffffffffffffffffff16815260200182815260200192505050602060405180830381600087803b1580156104b157600080fd5b505af11580156104c5573d6000803e3d6000fd5b505050506040513d60208110156104db57600080fd5b810190808051906020019092919050505061055e576040517f08c379a00000000000000000000000000000000000000000000000000000000081526004018080602001828103825260098152602001807f6e6f20746f6b656e73000000000000000000000000000000000000000000000081525060200191505060405180910390fd5b8060040160009054906101000a900473ffffffffffffffffffffffffffffffffffffffff1673ffffffffffffffffffffffffffffffffffffffff167f9e2041a7783d34d703103de3aa8342f2b0849a52bad368df990e6b146c7d364d836040518082815260200191505060405180910390a2505050565b6105dd6111d1565b73ffffffffffffffffffffffffffffffffffffffff1660008054906101000a900473ffffffffffffffffffffffffffffffffffffffff1673ffffffffffffffffffffffffffffffffffffffff161461069d576040517f08c379a00000000000000000000000000000000000000000000000000000000081526004018080602001828103825260208152602001807f4f776e61626c653a2063616c6c6572206973206e6f7420746865206f776e657281525060200191505060405180910390fd5b6000600260008673ffffffffffffffffffffffffffffffffffffffff1673ffffffffffffffffffffffffffffffffffffffff1681526020019081526020016000206001015414610738576040517f08c379a00000000000000000000000000000000000000000000000000000000081526004018080602001828103825260238152602001806114d66023913960400191505060405180910390fd5b610e428161ffff1611156107b4576040517f08c379a000000000000000000000000000000000000000000000000000000000815260040180806020018281038252601b8152602001807f436c6966662067726561746572207468616e203130207965617273000000000081525060200191505060405180910390fd5b6123a58261ffff161115610830576040517f08c379a000000000000000000000000000000000000000000000000000000000815260040180806020018281038252601e8152602001807f4475726174696f6e2067726561746572207468616e203235207965617273000081525060200191505060405180910390fd5b60006108498361ffff16856111d990919063ffffffff16565b9050600081116108c1576040517f08c379a00000000000000000000000000000000000000000000000000000000081526004018080602001828103825260188152602001807f616d6f756e7452656c6561736564506572446179203e2030000000000000000081525060200191505060405180910390fd5b600160009054906101000a900473ffffffffffffffffffffffffffffffffffffffff1673ffffffffffffffffffffffffffffffffffffffff166323b872dd610907610eef565b30876040518463ffffffff1660e01b8152600401808473ffffffffffffffffffffffffffffffffffffffff1681526020018373ffffffffffffffffffffffffffffffffffffffff1681526020018281526020019350505050602060405180830381600087803b15801561097957600080fd5b505af115801561098d573d6000803e3d6000fd5b505050506040513d60208110156109a357600080fd5b81019080805190602001909291905050506109bd57600080fd5b6109c5611481565b6040518060c00160405280620151808561ffff160262ffffff166109e7611223565b0181526020018681526020018561ffff168152602001600061ffff168152602001600081526020018773ffffffffffffffffffffffffffffffffffffffff16815250905080600260008873ffffffffffffffffffffffffffffffffffffffff1673ffffffffffffffffffffffffffffffffffffffff168152602001908152602001600020600082015181600001556020820151816001015560408201518160020160006101000a81548161ffff021916908361ffff16021790555060608201518160020160026101000a81548161ffff021916908361ffff1602179055506080820151816003015560a08201518160040160006101000a81548173ffffffffffffffffffffffffffffffffffffffff021916908373ffffffffffffffffffffffffffffffffffffffff1602179055509050508573ffffffffffffffffffffffffffffffffffffffff167f8ce0bd46ec50cf39f0d0ea8686a686eb226af5796dcda4231b26fb84b5ef123460405160405180910390a2505050505050565b610b6c6111d1565b73ffffffffffffffffffffffffffffffffffffffff1660008054906101000a900473ffffffffffffffffffffffffffffffffffffffff1673ffffffffffffffffffffffffffffffffffffffff1614610c2c576040517f08c379a00000000000000000000000000000000000000000000000000000000081526004018080602001828103825260208152602001807f4f776e61626c653a2063616c6c6572206973206e6f7420746865206f776e657281525060200191505060405180910390fd5b600073ffffffffffffffffffffffffffffffffffffffff1660008054906101000a900473ffffffffffffffffffffffffffffffffffffffff1673ffffffffffffffffffffffffffffffffffffffff167f8be0079c531659141344cd1fd0a4f28419497f9722a3daafe3b4186f6b6457e060405160405180910390a360008060006101000a81548173ffffffffffffffffffffffffffffffffffffffff021916908373ffffffffffffffffffffffffffffffffffffffff160217905550565b6000806000600260008573ffffffffffffffffffffffffffffffffffffffff1673ffffffffffffffffffffffffffffffffffffffff16815260200190815260200160002090508060010154816003015410610dad576040517f08c379a00000000000000000000000000000000000000000000000000000000081526004018080602001828103825260158152602001807f546f6b656e732066756c6c792072656c6561736564000000000000000000000081525060200191505060405180910390fd5b8060000154610dba611223565b1015610dcd576000809250925050610eea565b6000610e0762015180610df962015180856000015403610deb611223565b61122b90919063ffffffff16565b6111d990919063ffffffff16565b90508160020160009054906101000a900461ffff1661ffff168110610e65576000610e438360030154846001015461122b90919063ffffffff16565b90508260020160009054906101000a900461ffff168194509450505050610eea565b6000610e908360020160029054906101000a900461ffff1661ffff168361122b90919063ffffffff16565b90506000610ec18460020160009054906101000a900461ffff1661ffff1685600101546111d990919063ffffffff16565b90506000610edc828461ffff1661127590919063ffffffff16565b905082819650965050505050505b915091565b60008060009054906101000a900473ffffffffffffffffffffffffffffffffffffffff16905090565b610f206111d1565b73ffffffffffffffffffffffffffffffffffffffff1660008054906101000a900473ffffffffffffffffffffffffffffffffffffffff1673ffffffffffffffffffffffffffffffffffffffff1614610fe0576040517f08c379a00000000000000000000000000000000000000000000000000000000081526004018080602001828103825260208152602001807f4f776e61626c653a2063616c6c6572206973206e6f7420746865206f776e657281525060200191505060405180910390fd5b600073ffffffffffffffffffffffffffffffffffffffff168173ffffffffffffffffffffffffffffffffffffffff161415611066576040517f08c379a00000000000000000000000000000000000000000000000000000000081526004018080602001828103825260268152602001806114f96026913960400191505060405180910390fd5b8073ffffffffffffffffffffffffffffffffffffffff1660008054906101000a900473ffffffffffffffffffffffffffffffffffffffff1673ffffffffffffffffffffffffffffffffffffffff167f8be0079c531659141344cd1fd0a4f28419497f9722a3daafe3b4186f6b6457e060405160405180910390a3806000806101000a81548173ffffffffffffffffffffffffffffffffffffffff021916908373ffffffffffffffffffffffffffffffffffffffff16021790555050565b600160009054906101000a900473ffffffffffffffffffffffffffffffffffffffff1681565b6000808284019050838110156111c7576040517f08c379a000000000000000000000000000000000000000000000000000000000815260040180806020018281038252601b8152602001807f536166654d6174683a206164646974696f6e206f766572666c6f77000000000081525060200191505060405180910390fd5b8091505092915050565b600033905090565b600061121b83836040518060400160405280601a81526020017f536166654d6174683a206469766973696f6e206279207a65726f0000000000008152506112fb565b905092915050565b600042905090565b600061126d83836040518060400160405280601e81526020017f536166654d6174683a207375627472616374696f6e206f766572666c6f7700008152506113c1565b905092915050565b60008083141561128857600090506112f5565b600082840290508284828161129957fe5b04146112f0576040517f08c379a000000000000000000000000000000000000000000000000000000000815260040180806020018281038252602181526020018061151f6021913960400191505060405180910390fd5b809150505b92915050565b600080831182906113a7576040517f08c379a00000000000000000000000000000000000000000000000000000000081526004018080602001828103825283818151815260200191508051906020019080838360005b8381101561136c578082015181840152602081019050611351565b50505050905090810190601f1680156113995780820380516001836020036101000a031916815260200191505b509250505060405180910390fd5b5060008385816113b357fe5b049050809150509392505050565b600083831115829061146e576040517f08c379a00000000000000000000000000000000000000000000000000000000081526004018080602001828103825283818151815260200191508051906020019080838360005b83811015611433578082015181840152602081019050611418565b50505050905090810190601f1680156114605780820380516001836020036101000a031916815260200191505b509250505060405180910390fd5b5060008385039050809150509392505050565b6040518060c001604052806000815260200160008152602001600061ffff168152602001600061ffff16815260200160008152602001600073ffffffffffffffffffffffffffffffffffffffff168152509056fe546f6b656e7320616c726561647920616464656420746f205065726d615661756c742e4f776e61626c653a206e6577206f776e657220697320746865207a65726f2061646472657373536166654d6174683a206d756c7469706c69636174696f6e206f766572666c6f77a264697066735822122082f5e3c1cb0205bc5de6b5adf0e294c5406605dacf7e4d942d987392dd9c486664736f6c63430007040033",
  "immutableReferences": {},
  "source": "// SPDX-License-Identifier: MIT\r\n\r\n/*\r\nPermaVault is based on TokenVault https://gist.github.com/rstormsf/7cfb0c6b7a835c0c67b4a394b4fd9383\r\n\r\nThe PermaVault, different from a VestingVault, will lock a token ammount and release\r\nthe token to the treasury wallet during a period of time.\r\n\r\nThese tokens will be released daily during a timespam that starts at _vestingCliffInDays\r\nand ends at _vestingDurationInDays\r\n\r\nOnce the token ammount is deposited to PermaVault, it can't be reverted. Not even by\r\nthe contract owner.\r\n\r\nThe tokens released daily is equal to (_amount)/(_vestingDurationInDays - _vestingCliffInDays)\r\n*/\r\n\r\npragma solidity >=0.6.0 <0.8.0;\r\n\r\nimport \"./ERC20.sol\";\r\nimport \"./SafeMath.sol\";\r\nimport \"./Ownable.sol\";\r\n\r\ncontract PermaVault is Ownable {\r\n    using SafeMath for uint256;\r\n    using SafeMath for uint16;\r\n\r\n    struct Grant {\r\n        uint256 startTime;\r\n        uint256 amount;\r\n        uint16 vestingDuration;\r\n        uint16 daysClaimed;\r\n        uint256 totalClaimed;\r\n        address recipient;\r\n    }\r\n\r\n    event Deposit(address indexed recipient);\r\n    event tokenReleased(address indexed recipient, uint256 amountClaimed);\r\n    // event GrantRevoked(address recipient, uint256 amountVested, uint256 amountNotVested);\r\n\r\n    ERC20 public token;\r\n    \r\n    mapping (address => Grant) private tokenGrants;\r\n\r\n    constructor(ERC20 _token) {\r\n        require(address(_token) != address(0));\r\n        token = _token;\r\n    }\r\n    \r\n    function addTokentoVault(\r\n        address _recipient,\r\n        uint256 _amount,\r\n        uint16 _vestingDurationInDays,\r\n        uint16 _vestingCliffInDays    \r\n    ) \r\n        external\r\n        onlyOwner\r\n    {\r\n        require(tokenGrants[_recipient].amount == 0, \"Tokens already added to PermaVault.\");\r\n        require(_vestingCliffInDays <= 10*365, \"Cliff greater than 10 years\");\r\n        require(_vestingDurationInDays <= 25*365, \"Duration greater than 25 years\");\r\n        \r\n        uint256 amountReleasedPerDay = _amount.div(_vestingDurationInDays);\r\n        require(amountReleasedPerDay > 0, \"amountReleasedPerDay > 0\");\r\n\r\n        // Transfer the grant tokens under the control of the vesting contract\r\n        require(token.transferFrom(owner(), address(this), _amount));\r\n\r\n        Grant memory grant = Grant({\r\n            startTime: currentTime() + _vestingCliffInDays * 1 days,\r\n            amount: _amount,\r\n            vestingDuration: _vestingDurationInDays,\r\n            daysClaimed: 0,\r\n            totalClaimed: 0,\r\n            recipient: _recipient\r\n        });\r\n        tokenGrants[_recipient] = grant;\r\n        emit Deposit(_recipient);\r\n    }\r\n\r\n    /// @notice Allows a grant recipient to claim their vested tokens. Errors if no tokens have vested\r\n    function releaseUnlockedTokens() external {\r\n        uint16 daysVested;\r\n        uint256 amountVested;\r\n        (daysVested, amountVested) = calculateRelease(msg.sender);\r\n        require(amountVested > 0, \"0 Tokens to release\");\r\n\r\n        Grant storage tokenGrant = tokenGrants[msg.sender];\r\n        tokenGrant.daysClaimed = uint16(tokenGrant.daysClaimed.add(daysVested));\r\n        tokenGrant.totalClaimed = uint256(tokenGrant.totalClaimed.add(amountVested));\r\n        \r\n        require(token.transfer(tokenGrant.recipient, amountVested), \"no tokens\");\r\n        emit tokenReleased(tokenGrant.recipient, amountVested);\r\n    }\r\n\r\n    /// @notice Terminate token grant transferring all vested tokens to the `_recipient`\r\n    /// and returning all non-vested tokens to the contract owner\r\n    /// Secured to the contract owner only\r\n    /// @param _recipient address of the token grant recipient\r\n    /*function revokeTokenGrant(address _recipient) \r\n        external \r\n        onlyOwner\r\n    {\r\n        Grant storage tokenGrant = tokenGrants[_recipient];\r\n        uint16 daysVested;\r\n        uint256 amountVested;\r\n        (daysVested, amountVested) = calculateRelease(_recipient);\r\n\r\n        uint256 amountNotVested = (tokenGrant.amount.sub(tokenGrant.totalClaimed)).sub(amountVested);\r\n\r\n        require(token.transfer(owner(), amountNotVested));\r\n        require(token.transfer(_recipient, amountVested));\r\n\r\n        tokenGrant.startTime = 0;\r\n        tokenGrant.amount = 0;\r\n        tokenGrant.vestingDuration = 0;\r\n        tokenGrant.daysClaimed = 0;\r\n        tokenGrant.totalClaimed = 0;\r\n        tokenGrant.recipient = address(0);\r\n\r\n        emit GrantRevoked(_recipient, amountVested, amountNotVested);\r\n    }*/\r\n\r\n    function getReleaseStartTime(address _recipient) private view returns(uint256) {\r\n        Grant storage tokenGrant = tokenGrants[_recipient];\r\n        return tokenGrant.startTime;\r\n    }\r\n\r\n    function getReleaseAmount(address _recipient) public view returns(uint256) {\r\n        Grant storage tokenGrant = tokenGrants[_recipient];\r\n        return tokenGrant.amount;\r\n    }\r\n\r\n    /// @notice Calculate the vested and unclaimed months and tokens available for `_grantId` to claim\r\n    /// Due to rounding errors once grant duration is reached, returns the entire left grant amount\r\n    /// Returns (0, 0) if cliff has not been reached\r\n    function calculateRelease(address _recipient) public view returns (uint16, uint256) {\r\n        Grant storage tokenGrant = tokenGrants[_recipient];\r\n\r\n        require(tokenGrant.totalClaimed < tokenGrant.amount, \"Tokens fully released\");\r\n\r\n        // For grants created with a future start date, that hasn't been reached, return 0, 0\r\n        if (currentTime() < tokenGrant.startTime) {\r\n            return (0, 0);\r\n        }\r\n\r\n        // Check cliff was reached\r\n        uint elapsedDays = currentTime().sub(tokenGrant.startTime - 1 days).div(1 days);\r\n\r\n        // If over vesting duration, all tokens vested\r\n        if (elapsedDays >= tokenGrant.vestingDuration) {\r\n            uint256 remainingGrant = tokenGrant.amount.sub(tokenGrant.totalClaimed);\r\n            return (tokenGrant.vestingDuration, remainingGrant);\r\n        } else {\r\n            uint16 daysVested = uint16(elapsedDays.sub(tokenGrant.daysClaimed));\r\n            uint256 amountReleasedPerDay = tokenGrant.amount.div(uint256(tokenGrant.vestingDuration));\r\n            uint256 amountVested = uint256(daysVested.mul(amountReleasedPerDay));\r\n            return (daysVested, amountVested);\r\n        }\r\n    }\r\n\r\n    function currentTime() private view returns(uint256) {\r\n        return block.timestamp;\r\n    }\r\n}",
  "sourcePath": "/home/phillipe/RIEToken/contracts/PermaVault.sol",
  "compiler": {
    "name": "solc",
    "version": "0.7.4+commit.3f05b770.Emscripten.clang"
  },
  "schemaVersion": "3.3.3",
  "updatedAt": "2021-02-01T18:50:28.846Z",
  "devdoc": {
    "kind": "dev",
    "methods": {
      "owner()": {
        "details": "Returns the address of the current owner."
      },
      "renounceOwnership()": {
        "details": "Leaves the contract without owner. It will not be possible to call `onlyOwner` functions anymore. Can only be called by the current owner. NOTE: Renouncing ownership will leave the contract without an owner, thereby removing any functionality that is only available to the owner."
      },
      "transferOwnership(address)": {
        "details": "Transfers ownership of the contract to a new account (`newOwner`). Can only be called by the current owner."
      }
    },
    "version": 1
  },
  "userdoc": {
    "kind": "user",
    "methods": {
      "calculateRelease(address)": {
        "notice": "Calculate the vested and unclaimed months and tokens available for `_grantId` to claim Due to rounding errors once grant duration is reached, returns the entire left grant amount Returns (0, 0) if cliff has not been reached"
      },
      "releaseUnlockedTokens()": {
        "notice": "Allows a grant recipient to claim their vested tokens. Errors if no tokens have vested"
      }
    },
    "version": 1
  }
}